:100000000C945D000C9485000C9485000C94850084
:100010000C9485000C9485000C9485000C9485004C
:100020000C9485000C9485000C9485000C9485003C
:100030000C9485000C9485000C9485000C9485002C
:100040000C9454020C9485000C94C4020C949E02EF
:100050000C9485000C9485000C9485000C9485000C
:100060000C9485000C9485000000000024002700FB
:100070002A0000000000250028002B0004040404CE
:100080000404040402020202020203030303030342
:10009000010204081020408001020408102001021F
:1000A00004081020000000080002010000030407FB
:1000B0000000000000000000ED0411241FBECFEF7F
:1000C000D8E0DEBFCDBF23E0AAE8B1E001C01D92B9
:1000D000A235B207E1F711E0A0E0B1E0ECECFBE003
:1000E00002C005900D92AA38B107D9F710E0CDE50E
:1000F000D0E004C02197FE010E941A05CC35D1073B
:10010000C9F70E94F6020C94E4050C940000EEEA94
:10011000F0E02491EAE9F0E09491E6E8F0E0E4917F
:10012000EE2309F43BC0222339F1233091F038F457
:100130002130A9F0223001F524B52F7D12C02730DF
:1001400091F02830A1F02430B9F4209180002F7D67
:1001500003C0209180002F77209380000DC024B52C
:100160002F7724BD09C02091B0002F7703C02091C4
:10017000B0002F7D2093B000F0E0EE0FFF1FEE588F
:10018000FF4FA591B4912FB7F894EC91811103C062
:1001900090959E2301C09E2B9C932FBF08958EBDEA
:1001A00000000DB407FEFDCF8EB50895CF93DF9309
:1001B000EC0181E00E94870080E00E9487008A8530
:1001C0000E94CF0080E00E94CF0080FDFBCF81E045
:1001D000DF91CF910C948700CF93DF9390E0FC01E7
:1001E000E057FF4F2491FC01E458FF4F849188238E
:1001F00061F190E0880F991FFC01E859FF4FC5910C
:10020000D491FC01EE58FF4FA591B491611109C042
:100210009FB7F8948881209582238883EC912E23C0
:100220000BC0623061F49FB7F8943881822F8095BB
:1002300083238883EC912E2B2C939FBF06C08FB70E
:10024000F894E8812E2B28838FBFDF91CF910895FA
:10025000CF92DF92EF92FF920F931F93CF93DF9392
:100260006C017A018B01C0E0D0E0CE15DF0589F08A
:10027000D8016D918D01D601ED91FC910190F08135
:10028000E02DC6010995892B11F47E0102C021964B
:10029000ECCFC701DF91CF911F910F91FF90EF90AD
:1002A000DF90CF900895089580E090E00895FC01DC
:1002B000538D448D252F30E0842F90E0821B930BCB
:1002C000541710F0CF96089501970895FC01918D71
:1002D000828D981761F0828DDF01A80FB11D5D96A8
:1002E0008C91928D9F5F9F73928F90E008958FEF16
:1002F0009FEF0895FC01918D828D981731F0828DCA
:10030000E80FF11D858D90E008958FEF9FEF089520
:10031000FC01918D228D892F90E0805C9F4F821B84
:1003200091098F739927089585EB92E00E948801C7
:1003300021E0892B09F420E0822F0895FC01848DAF
:10034000DF01A80FB11DA35ABF4F2C91848D90E0FF
:1003500001968F739927848FA689B7892C93A089DA
:10036000B1898C9180648C93938D848D981306C091
:100370000288F389E02D80818F7D80830895EF923C
:10038000FF920F931F93CF93DF93EC0181E0888F4F
:100390009B8D8C8D981305C0E889F989808185FD36
:1003A00024C0F62E0B8D10E00F5F1F4F0F73112727
:1003B000E02E8C8DE8120CC00FB607FCFACFE8894E
:1003C000F989808185FFF5CFCE010E949E01F1CF92
:1003D0008B8DFE01E80FF11DE35AFF4FF0820B8F6A
:1003E000EA89FB898081806207C0EE89FF8960838A
:1003F000E889F98980818064808381E090E0DF91E1
:10040000CF911F910F91FF90EF900895CF93DF93BD
:10041000EC01888D8823C9F0EA89FB89808185FDFC
:1004200005C0A889B9898C9186FD0FC00FB607FC5D
:10043000F5CF808185FFF2CFA889B9898C9185FF9E
:10044000EDCFCE010E949E01E7CFDF91CF910895BD
:1004500080E090E0892B29F00E94940181110C9496
:1004600000000895009769F0FC0101900020E9F771
:100470003197AF01481B590BBC0185EB92E00C94FE
:10048000280180E090E00895CF93DF930E9432022C
:10049000EC0181E291E00E9432028C0F9D1FDF91FE
:1004A000CF9108950E9420051F920F920FB60F92D0
:1004B00011242F933F938F939F93AF93BF9380917A
:1004C000B1029091B202A091B302B091B402309106
:1004D000B00223E0230F2D3720F40196A11DB11D9A
:1004E00005C026E8230F0296A11DB11D2093B0027E
:1004F0008093B1029093B202A093B302B093B4027E
:100500008091AC029091AD02A091AE02B091AF0289
:100510000196A11DB11D8093AC029093AD02A093F2
:10052000AE02B093AF02BF91AF919F918F913F9177
:100530002F910F900FBE0F901F9018951F920F9242
:100540000FB60F9211242F933F934F935F936F93A6
:100550007F938F939F93AF93BF93EF93FF9385EB1D
:1005600092E00E949E01FF91EF91BF91AF919F9108
:100570008F917F916F915F914F913F912F910F904C
:100580000FBE0F901F9018951F920F920FB60F92EB
:1005900011242F938F939F93EF93FF93E091C502C4
:1005A000F091C6028081E091CB02F091CC0282FDF5
:1005B00012C090818091CE028F5F8F732091CF0205
:1005C000821751F0E091CE02F0E0EB54FD4F958F91
:1005D0008093CE0201C08081FF91EF919F918F9116
:1005E0002F910F900FBE0F901F901895CF93DF9310
:1005F000CDB7DEB7E6970FB6F894DEBF0FBECDBF1E
:10060000789484B5826084BD84B5816084BD85B5ED
:10061000826085BD85B5816085BD80916E008160F9
:1006200080936E001092810080918100826080939F
:1006300081008091810081608093810080918000A1
:100640008160809380008091B10084608093B100CC
:100650008091B00081608093B00080917A008460C6
:1006600080937A0080917A00826080937A008091F2
:100670007A00816080937A0080917A00806880930C
:100680007A001092C100E091C502F091C60282E0AA
:100690008083E091C102F091C2021082E091C30216
:1006A000F091C4028FEC80831092CD02E091C902D8
:1006B000F091CA0286E08083E091C702F091C802FF
:1006C000808180618083E091C702F091C8028081BF
:1006D00088608083E091C702F091C80280818068C1
:1006E0008083E091C702F091C80280818F7D808372
:1006F0001FB7F89480918A01811126C0E6E8F0E0E6
:100700008491EAE9F0E09491E82FF0E0EE0FFF1F0A
:10071000E859FF4FA591B491EC91E92319F481E0D8
:100720000E94870061E08AE00E94EC008CB5806145
:100730008CBD8CB580648CBD61E08DE00E94EC00C6
:1007400061E08BE00E94EC0080918A018F5F8093D2
:100750008A011FBF61E08BE00E94EC0060E08CE04A
:100760000E94EC0084E291E00E94320285EB92E06C
:100770000E948801181619060CF02CC185EB92E036
:100780000E946601C19709F025C18BE0E4E0F1E029
:10079000DE01929601900D928A95E1F78CE391E04B
:1007A0000E94440218A581E00E94870080E00E9418
:1007B00087008BA10E94CF0081E00E94870080E02B
:1007C0000E948700812F0E94CF0081E00E94870055
:1007D000CE0182960E94D6008AE491E00E944402F3
:1007E0001DA61EA61FA618AA812C912C5401839425
:1007F00081E089ABCDA4DEA4EFA4F8A887EC282E75
:100800003324339400E010E00E9473052FEF3FEF94
:100810004FEF5FE00E948105F801E457FE4F90839F
:100820008183728363830C5F1F4F0039110561F769
:10083000260137010CE811E0D8019D918D0181E07E
:100840009EAB0E94870080E00E9487008BA10E94DF
:10085000CF0081E00E94870080E00E9487008CA189
:100860000E94CF00862D0E94CF00852D0E94CF00D0
:10087000842D0E94CF009EA9892F0E94CF0081E085
:100880000E948700CE0182960E94D600BFEF4B1ACD
:100890005B0A6B0A7B0AE2E00C311E0769F6412C09
:1008A000512C3201D301C2018C0D9D1DAE1DBF1D07
:1008B0008AAB9BABACABBDAB81E00E94870080E014
:1008C0000E9487008AA10E94CF008CA90E94CF00BD
:1008D0008BA90E94CF00842D8C0D0E94CF0080E058
:1008E0000E94CF0080938B0181E00E948700CE019F
:1008F00082960E94D600F201E057FF4FE457FE4F68
:1009000080918B0180839FEF491A590A690A790AFD
:10091000A0E94A1651046104710421F6ECE8F1E003
:100920009191DF01A157BF4F8C91981305C0B2E0A0
:10093000EC31FB07A9F701C019AAE1E02E1A310832
:10094000F0E9CF0ED11CE11CF11C2114310409F097
:1009500059CF82E691E00E94320219A2A5019401CA
:100960008E010F5D1F4FCA01B9012AE030E040E05F
:1009700050E00E94B305605DD8016E938D01211592
:1009800031054105510579F7CD010E9432028AE611
:1009900091E00E944402B9A9BB2319F087E791E0D6
:1009A00002C080E891E00E9444028DA59EA5AFA5FB
:1009B000B8A911968DA79EA7AFA7B8AB9FEF891ACC
:1009C000990AA90AB90AA9E08A169104A104B104F6
:1009D00009F010CF0E942802C9CEE5EBF2E01382A5
:1009E000128288EE93E0A0E0B0E084839583A68332
:1009F000B78383E191E09183808385EC90E09587D4
:100A0000848784EC90E09787868780EC90E0918BD8
:100A1000808B81EC90E0938B828B82EC90E0958BC5
:100A2000848B86EC90E0978B868B118E128E138EC2
:100A3000148E0895EE0FFF1F0590F491E02D099498
:100A400081E090E0F8940C94E4058F929F92AF922D
:100A5000BF92CF92DF92EF92FF92CF93DF93EC01A0
:100A6000688179818A819B81611571058105910574
:100A700021F464E279ED8BE597E02DE133EF41E07D
:100A800050E00E94810549015A019B01AC01A7EA8F
:100A9000B1E40E94A0056B017C01ACEEB4EFA501AE
:100AA00094010E94AE05DC01CB018C0D9D1DAE1D95
:100AB000BF1DB7FF03C00197A109B0488883998380
:100AC000AA83BB83BC01CD019F77DF91CF91FF90BB
:100AD000EF90DF90CF90BF90AF909F908F90089550
:100AE0000E942505089580E091E00E942505089563
:100AF00060930001709301018093020190930301C0
:100B00000895052E97FB1EF400940E94980557FD4A
:100B100007D00E94B30507FC03D04EF40C9498054F
:100B200050954095309521953F4F4F4F5F4F089519
:100B300090958095709561957F4F8F4F9F4F089549
:100B40000E94D505A59F900DB49F900DA49F800D88
:100B5000911D11240895B7FF0C94A0050E94A005D3
:100B6000821B930B0895A1E21A2EAA1BBB1BFD0149
:100B70000DC0AA1FBB1FEE1FFF1FA217B307E4077C
:100B8000F50720F0A21BB30BE40BF50B661F771FD4
:100B9000881F991F1A9469F76095709580959095B4
:100BA0009B01AC01BD01CF010895A29FB001B39F8D
:100BB000C001A39F700D811D1124911DB29F700D66
:0C0BC000811D1124911D0895F894FFCFB1
:100BCC00010000000306022052D8C7B9AB9F0500F4
:100BDC00000000BF01280157010602880166017A56
:100BEC00010D0A00456E74657220612066756E6396
:100BFC0074696F6E616C6974793A20006572617307
:100C0C00696E6720666C61736800707265706169EB
:100C1C0072696E672072616E646F6D2061727261B1
:100C2C007900426C6F636B2023002077617320770F
:100C3C0072697474656E0053756363657373210018
:0A0C4C004661696C757265210000B5
:00000001FF
